{
  "contractName": "Auction",
  "abi": [
    {
      "anonymous": false,
      "inputs": [
        {
          "indexed": true,
          "internalType": "address",
          "name": "highestBidder",
          "type": "address"
        },
        {
          "indexed": false,
          "internalType": "uint256",
          "name": "highestBid",
          "type": "uint256"
        }
      ],
      "name": "BidEvent",
      "type": "event"
    },
    {
      "anonymous": false,
      "inputs": [
        {
          "indexed": false,
          "internalType": "string",
          "name": "message",
          "type": "string"
        },
        {
          "indexed": false,
          "internalType": "uint256",
          "name": "time",
          "type": "uint256"
        }
      ],
      "name": "CanceledEvent",
      "type": "event"
    },
    {
      "anonymous": false,
      "inputs": [
        {
          "indexed": false,
          "internalType": "address",
          "name": "withdrawer",
          "type": "address"
        },
        {
          "indexed": false,
          "internalType": "uint256",
          "name": "amount",
          "type": "uint256"
        }
      ],
      "name": "WithdrawalEvent",
      "type": "event"
    },
    {
      "inputs": [],
      "name": "Mycar",
      "outputs": [
        {
          "internalType": "string",
          "name": "Brand",
          "type": "string"
        },
        {
          "internalType": "string",
          "name": "Rnumber",
          "type": "string"
        }
      ],
      "stateMutability": "view",
      "type": "function"
    },
    {
      "inputs": [],
      "name": "STATE",
      "outputs": [
        {
          "internalType": "enum Auction.auction_state",
          "name": "",
          "type": "uint8"
        }
      ],
      "stateMutability": "view",
      "type": "function"
    },
    {
      "inputs": [],
      "name": "auction_end",
      "outputs": [
        {
          "internalType": "uint256",
          "name": "",
          "type": "uint256"
        }
      ],
      "stateMutability": "view",
      "type": "function"
    },
    {
      "inputs": [],
      "name": "auction_start",
      "outputs": [
        {
          "internalType": "uint256",
          "name": "",
          "type": "uint256"
        }
      ],
      "stateMutability": "view",
      "type": "function"
    },
    {
      "inputs": [
        {
          "internalType": "address",
          "name": "",
          "type": "address"
        }
      ],
      "name": "bidder_index",
      "outputs": [
        {
          "internalType": "uint256",
          "name": "",
          "type": "uint256"
        }
      ],
      "stateMutability": "view",
      "type": "function"
    },
    {
      "inputs": [
        {
          "internalType": "address",
          "name": "",
          "type": "address"
        }
      ],
      "name": "bids",
      "outputs": [
        {
          "internalType": "uint256",
          "name": "",
          "type": "uint256"
        }
      ],
      "stateMutability": "view",
      "type": "function"
    },
    {
      "inputs": [],
      "name": "highestBid",
      "outputs": [
        {
          "internalType": "uint256",
          "name": "",
          "type": "uint256"
        }
      ],
      "stateMutability": "view",
      "type": "function"
    },
    {
      "inputs": [],
      "name": "highestBidder",
      "outputs": [
        {
          "internalType": "address",
          "name": "",
          "type": "address"
        }
      ],
      "stateMutability": "view",
      "type": "function"
    },
    {
      "inputs": [],
      "name": "tokenContract",
      "outputs": [
        {
          "internalType": "contract SampleToken",
          "name": "",
          "type": "address"
        }
      ],
      "stateMutability": "view",
      "type": "function"
    },
    {
      "inputs": [
        {
          "internalType": "uint256",
          "name": "",
          "type": "uint256"
        }
      ],
      "name": "bid",
      "outputs": [
        {
          "internalType": "bool",
          "name": "",
          "type": "bool"
        }
      ],
      "stateMutability": "nonpayable",
      "type": "function"
    },
    {
      "inputs": [],
      "name": "withdraw",
      "outputs": [
        {
          "internalType": "bool",
          "name": "",
          "type": "bool"
        }
      ],
      "stateMutability": "nonpayable",
      "type": "function"
    },
    {
      "inputs": [],
      "name": "cancel_auction",
      "outputs": [
        {
          "internalType": "bool",
          "name": "",
          "type": "bool"
        }
      ],
      "stateMutability": "nonpayable",
      "type": "function"
    }
  ],
  "bytecode": "0x608060405234801561001057600080fd5b506107e1806100206000396000f3fe608060405234801561001057600080fd5b50600436106100b45760003560e01c806378f453401161007157806378f453401461019257806391f90157146101b0578063c2aee3a9146101ce578063c458b65a146101fe578063c486456c1461021c578063d57bde791461023a576100b4565b80630216f202146100b95780633ba88ca1146100d85780633ccfd60b146100f6578063454a2ab31461011457806355a373d61461014457806362ea82db14610162575b600080fd5b6100c1610258565b6040516100cf929190610596565b60405180910390f35b6100e061037a565b6040516100ed9190610545565b60405180910390f35b6100fe61037f565b60405161010b9190610545565b60405180910390f35b61012e6004803603810190610129919061047d565b610384565b60405161013b9190610545565b60405180910390f35b61014c61038b565b6040516101599190610560565b60405180910390f35b61017c60048036038101906101779190610454565b6103af565b60405161018991906105cd565b60405180910390f35b61019a6103c7565b6040516101a791906105cd565b60405180910390f35b6101b86103cd565b6040516101c5919061052a565b60405180910390f35b6101e860048036038101906101e39190610454565b6103f3565b6040516101f591906105cd565b60405180910390f35b61020661040b565b60405161021391906105cd565b60405180910390f35b610224610411565b604051610231919061057b565b60405180910390f35b610242610424565b60405161024f91906105cd565b60405180910390f35b6006806000018054610269906106c8565b80601f0160208091040260200160405190810160405280929190818152602001828054610295906106c8565b80156102e25780601f106102b7576101008083540402835291602001916102e2565b820191906000526020600020905b8154815290600101906020018083116102c557829003601f168201915b5050505050908060010180546102f7906106c8565b80601f0160208091040260200160405190810160405280929190818152602001828054610323906106c8565b80156103705780601f1061034557610100808354040283529160200191610370565b820191906000526020600020905b81548152906001019060200180831161035357829003601f168201915b5050505050905082565b600090565b600090565b6000919050565b60008054906101000a900473ffffffffffffffffffffffffffffffffffffffff1681565b60096020528060005260406000206000915090505481565b60025481565b600560009054906101000a900473ffffffffffffffffffffffffffffffffffffffff1681565b600a6020528060005260406000206000915090505481565b60035481565b600b60009054906101000a900460ff1681565b60045481565b6000813590506104398161077d565b92915050565b60008135905061044e81610794565b92915050565b60006020828403121561046657600080fd5b60006104748482850161042a565b91505092915050565b60006020828403121561048f57600080fd5b600061049d8482850161043f565b91505092915050565b6104af81610604565b82525050565b6104be81610616565b82525050565b6104cd8161065f565b82525050565b6104dc81610683565b82525050565b60006104ed826105e8565b6104f781856105f3565b9350610507818560208601610695565b61051081610758565b840191505092915050565b61052481610655565b82525050565b600060208201905061053f60008301846104a6565b92915050565b600060208201905061055a60008301846104b5565b92915050565b600060208201905061057560008301846104c4565b92915050565b600060208201905061059060008301846104d3565b92915050565b600060408201905081810360008301526105b081856104e2565b905081810360208301526105c481846104e2565b90509392505050565b60006020820190506105e2600083018461051b565b92915050565b600081519050919050565b600082825260208201905092915050565b600061060f82610635565b9050919050565b60008115159050919050565b600081905061063082610769565b919050565b600073ffffffffffffffffffffffffffffffffffffffff82169050919050565b6000819050919050565b600061066a82610671565b9050919050565b600061067c82610635565b9050919050565b600061068e82610622565b9050919050565b60005b838110156106b3578082015181840152602081019050610698565b838111156106c2576000848401525b50505050565b600060028204905060018216806106e057607f821691505b602082108114156106f4576106f3610729565b5b50919050565b7f4e487b7100000000000000000000000000000000000000000000000000000000600052602160045260246000fd5b7f4e487b7100000000000000000000000000000000000000000000000000000000600052602260045260246000fd5b6000601f19601f8301169050919050565b6002811061077a576107796106fa565b5b50565b61078681610604565b811461079157600080fd5b50565b61079d81610655565b81146107a857600080fd5b5056fea2646970667358221220726d15ccf7c259e69ffb1dd9fc144970613b76fd0fc97aee21b0fb361457cfe464736f6c63430008000033",
  "immutableReferences": {},
  "source": "// SPDX-License-Identifier: MIT\n\npragma solidity ^0.8.0;\n\nimport \"./SampleToken.sol\";\n\ncontract Auction {\n    SampleToken public tokenContract;\n    address payable internal auction_owner;\n    uint256 public auction_start;\n    uint256 public auction_end;\n    uint256 public highestBid;\n    address public highestBidder;\n\n    enum auction_state {\n        CANCELLED,\n        STARTED\n    }\n\n    struct car {\n        string Brand;\n        string Rnumber;\n    }\n\n    car public Mycar;\n    address[] bidders;\n\n    mapping(address => uint256) public bids;\n    mapping(address => uint256) public bidder_index;\n\n    auction_state public STATE;\n\n    modifier an_ongoing_auction() {\n        require(\n            block.timestamp <= auction_end && STATE == auction_state.STARTED,\n            \"Action is ongoing\"\n        );\n        _;\n    }\n\n    modifier only_owner() {\n        require(msg.sender == auction_owner, \"Not owner 3\");\n        _;\n    }\n\n    modifier not_winner() {\n        require(msg.sender != highestBidder, \"You won! No money back\");\n        _;\n    }\n\n    modifier auction_ended() {\n        require(\n            block.timestamp > auction_end || STATE == auction_state.CANCELLED,\n            \"You can't withdraw, the auction is still open\"\n        );\n        _;\n    }\n\n    function bid(uint256) public virtual returns (bool) {}\n\n    function withdraw() public virtual returns (bool) {}\n\n    function cancel_auction() external virtual returns (bool) {}\n\n    event BidEvent(address indexed highestBidder, uint256 highestBid);\n    event WithdrawalEvent(address withdrawer, uint256 amount);\n    event CanceledEvent(string message, uint256 time);\n}\n\ncontract MyAuction is Auction {\n    constructor(\n        SampleToken _tokenContract,\n        uint256 _biddingTime,\n        address payable _owner,\n        string memory _brand,\n        string memory _Rnumber\n    ) {\n        tokenContract = _tokenContract;\n        auction_owner = _owner;\n        auction_start = block.timestamp;\n        auction_end = auction_start + _biddingTime * 1 hours;\n        STATE = auction_state.STARTED;\n        Mycar.Brand = _brand;\n        Mycar.Rnumber = _Rnumber;\n    }\n\n    function get_owner() public view returns (address) {\n        return auction_owner;\n    }\n\n    fallback() external payable {}\n\n    receive() external payable {}\n\n    function bid(uint256 value)\n        public\n        override\n        an_ongoing_auction\n        returns (bool)\n    {\n        require(\n            tokenContract.allowance(msg.sender, address(this)) >= value,\n            \"Bidden tokens were not allowed\"\n        );\n        require(value > 0, \"Please send tokens\");\n        require(bids[msg.sender] == 0, \"You already bade\");\n        require(value > highestBid, \"You can't bid, Make a higher Bid\");\n\n        highestBidder = msg.sender;\n        highestBid = value;\n        bidders.push(msg.sender);\n        bids[msg.sender] = highestBid;\n        bidder_index[msg.sender] = bidders.length - 1;\n\n        require(\n            tokenContract.transferFrom(msg.sender, address(this), value),\n            \"Transfer tokens from bid failed\"\n        );\n        emit BidEvent(highestBidder, highestBid);\n\n        return true;\n    }\n\n    function cancel_auction()\n        external\n        override\n        only_owner\n        an_ongoing_auction\n        returns (bool)\n    {\n        STATE = auction_state.CANCELLED;\n        emit CanceledEvent(\"Auction Cancelled\", block.timestamp);\n        return true;\n    }\n\n    function withdraw()\n        public\n        override\n        auction_ended\n        not_winner\n        returns (bool)\n    {\n        uint256 amount;\n        amount = bids[msg.sender];\n        require(amount > 0, \"Don't withdraw 0\");\n\n        bids[msg.sender] = 0;\n        remove_bidder(bidder_index[msg.sender]);\n\n        require(\n            tokenContract.transfer(msg.sender, amount),\n            \"Transfer of withdrawed tokens failed\"\n        );\n        emit WithdrawalEvent(msg.sender, amount);\n        return true;\n    }\n\n    function take_winner_money() external only_owner auction_ended {\n        uint256 amount = bids[highestBidder];\n        bids[highestBidder] = 0;\n        require(\n            tokenContract.transfer(msg.sender, amount),\n            \"Taking winner tokens failed\"\n        );\n    }\n\n    function remove_bidder(uint256 index) private {\n        require(index < bidders.length, \"Index out of range\");\n\n        bidder_index[bidders[index]] = bidders.length - 1;\n        bidders[index] = bidders[bidders.length - 1];\n        bidder_index[bidders[index]] = index;\n\n        bidders.pop();\n    }\n\n    function destruct_auction()\n        external\n        only_owner\n        auction_ended\n        returns (bool)\n    {\n        bids[highestBidder] = 0;\n        uint256 amount;\n        for (uint256 i = 0; i < bidders.length; i++) {\n            if (bids[bidders[i]] != 0) {\n                amount = bids[bidders[i]];\n                bids[bidders[i]] = 0;\n                require(tokenContract.transfer(bidders[i], amount));\n            }\n        }\n\n        selfdestruct(auction_owner);\n        return true;\n    }\n}\n",
  "sourcePath": "/home/sergiu/Downloads/homework2/contracts/MyAuction.sol",
  "compiler": {
    "name": "solc",
    "version": "0.8.0+commit.c7dfd78e.Emscripten.clang"
  },
  "schemaVersion": "3.4.11",
  "updatedAt": "2023-01-03T00:59:32.975Z",
  "devdoc": {
    "kind": "dev",
    "methods": {},
    "version": 1
  },
  "userdoc": {
    "kind": "user",
    "methods": {},
    "version": 1
  }
}