{
  "contractName": "MyAuction",
  "abi": [
    {
      "inputs": [
        {
          "internalType": "contract SampleToken",
          "name": "_tokenContract",
          "type": "address"
        },
        {
          "internalType": "uint256",
          "name": "_biddingTime",
          "type": "uint256"
        },
        {
          "internalType": "address payable",
          "name": "_owner",
          "type": "address"
        },
        {
          "internalType": "string",
          "name": "_brand",
          "type": "string"
        },
        {
          "internalType": "string",
          "name": "_Rnumber",
          "type": "string"
        }
      ],
      "stateMutability": "nonpayable",
      "type": "constructor"
    },
    {
      "anonymous": false,
      "inputs": [
        {
          "indexed": true,
          "internalType": "address",
          "name": "highestBidder",
          "type": "address"
        },
        {
          "indexed": false,
          "internalType": "uint256",
          "name": "highestBid",
          "type": "uint256"
        }
      ],
      "name": "BidEvent",
      "type": "event"
    },
    {
      "anonymous": false,
      "inputs": [
        {
          "indexed": false,
          "internalType": "string",
          "name": "message",
          "type": "string"
        },
        {
          "indexed": false,
          "internalType": "uint256",
          "name": "time",
          "type": "uint256"
        }
      ],
      "name": "CanceledEvent",
      "type": "event"
    },
    {
      "anonymous": false,
      "inputs": [
        {
          "indexed": false,
          "internalType": "address",
          "name": "withdrawer",
          "type": "address"
        },
        {
          "indexed": false,
          "internalType": "uint256",
          "name": "amount",
          "type": "uint256"
        }
      ],
      "name": "WithdrawalEvent",
      "type": "event"
    },
    {
      "stateMutability": "payable",
      "type": "fallback",
      "payable": true
    },
    {
      "inputs": [],
      "name": "Mycar",
      "outputs": [
        {
          "internalType": "string",
          "name": "Brand",
          "type": "string"
        },
        {
          "internalType": "string",
          "name": "Rnumber",
          "type": "string"
        }
      ],
      "stateMutability": "view",
      "type": "function",
      "constant": true
    },
    {
      "inputs": [],
      "name": "STATE",
      "outputs": [
        {
          "internalType": "enum Auction.auction_state",
          "name": "",
          "type": "uint8"
        }
      ],
      "stateMutability": "view",
      "type": "function",
      "constant": true
    },
    {
      "inputs": [],
      "name": "auction_end",
      "outputs": [
        {
          "internalType": "uint256",
          "name": "",
          "type": "uint256"
        }
      ],
      "stateMutability": "view",
      "type": "function",
      "constant": true
    },
    {
      "inputs": [],
      "name": "auction_start",
      "outputs": [
        {
          "internalType": "uint256",
          "name": "",
          "type": "uint256"
        }
      ],
      "stateMutability": "view",
      "type": "function",
      "constant": true
    },
    {
      "inputs": [
        {
          "internalType": "address",
          "name": "",
          "type": "address"
        }
      ],
      "name": "bidder_index",
      "outputs": [
        {
          "internalType": "uint256",
          "name": "",
          "type": "uint256"
        }
      ],
      "stateMutability": "view",
      "type": "function",
      "constant": true
    },
    {
      "inputs": [
        {
          "internalType": "address",
          "name": "",
          "type": "address"
        }
      ],
      "name": "bids",
      "outputs": [
        {
          "internalType": "uint256",
          "name": "",
          "type": "uint256"
        }
      ],
      "stateMutability": "view",
      "type": "function",
      "constant": true
    },
    {
      "inputs": [],
      "name": "highestBid",
      "outputs": [
        {
          "internalType": "uint256",
          "name": "",
          "type": "uint256"
        }
      ],
      "stateMutability": "view",
      "type": "function",
      "constant": true
    },
    {
      "inputs": [],
      "name": "highestBidder",
      "outputs": [
        {
          "internalType": "address",
          "name": "",
          "type": "address"
        }
      ],
      "stateMutability": "view",
      "type": "function",
      "constant": true
    },
    {
      "inputs": [],
      "name": "tokenContract",
      "outputs": [
        {
          "internalType": "contract SampleToken",
          "name": "",
          "type": "address"
        }
      ],
      "stateMutability": "view",
      "type": "function",
      "constant": true
    },
    {
      "stateMutability": "payable",
      "type": "receive",
      "payable": true
    },
    {
      "inputs": [],
      "name": "get_owner",
      "outputs": [
        {
          "internalType": "address",
          "name": "",
          "type": "address"
        }
      ],
      "stateMutability": "view",
      "type": "function",
      "constant": true
    },
    {
      "inputs": [
        {
          "internalType": "uint256",
          "name": "value",
          "type": "uint256"
        }
      ],
      "name": "bid",
      "outputs": [
        {
          "internalType": "bool",
          "name": "",
          "type": "bool"
        }
      ],
      "stateMutability": "nonpayable",
      "type": "function"
    },
    {
      "inputs": [],
      "name": "cancel_auction",
      "outputs": [
        {
          "internalType": "bool",
          "name": "",
          "type": "bool"
        }
      ],
      "stateMutability": "nonpayable",
      "type": "function"
    },
    {
      "inputs": [],
      "name": "withdraw",
      "outputs": [
        {
          "internalType": "bool",
          "name": "",
          "type": "bool"
        }
      ],
      "stateMutability": "nonpayable",
      "type": "function"
    },
    {
      "inputs": [],
      "name": "take_winner_money",
      "outputs": [],
      "stateMutability": "nonpayable",
      "type": "function"
    },
    {
      "inputs": [],
      "name": "destruct_auction",
      "outputs": [
        {
          "internalType": "bool",
          "name": "",
          "type": "bool"
        }
      ],
      "stateMutability": "nonpayable",
      "type": "function"
    }
  ],
  "bytecode": "0x60806040523480156200001157600080fd5b5060405162002d8938038062002d898339818101604052810190620000379190620002e0565b846000806101000a81548173ffffffffffffffffffffffffffffffffffffffff021916908373ffffffffffffffffffffffffffffffffffffffff16021790555082600160006101000a81548173ffffffffffffffffffffffffffffffffffffffff021916908373ffffffffffffffffffffffffffffffffffffffff16021790555042600281905550610e1084620000cf919062000458565b600254620000de9190620003fb565b6003819055506001600b60006101000a81548160ff0219169083600181111562000131577f4e487b7100000000000000000000000000000000000000000000000000000000600052602160045260246000fd5b021790555081600660000190805190602001906200015192919062000179565b5080600660010190805190602001906200016d92919062000179565b50505050505062000666565b828054620001879062000555565b90600052602060002090601f016020900481019282620001ab5760008555620001f7565b82601f10620001c657805160ff1916838001178555620001f7565b82800160010185558215620001f7579182015b82811115620001f6578251825591602001919060010190620001d9565b5b5090506200020691906200020a565b5090565b5b80821115620002255760008160009055506001016200020b565b5090565b6000620002406200023a84620003c8565b62000394565b9050828152602081018484840111156200025957600080fd5b620002668482856200051f565b509392505050565b6000815190506200027f8162000618565b92915050565b600081519050620002968162000632565b92915050565b600082601f830112620002ae57600080fd5b8151620002c084826020860162000229565b91505092915050565b600081519050620002da816200064c565b92915050565b600080600080600060a08688031215620002f957600080fd5b6000620003098882890162000285565b95505060206200031c88828901620002c9565b94505060406200032f888289016200026e565b935050606086015167ffffffffffffffff8111156200034d57600080fd5b6200035b888289016200029c565b925050608086015167ffffffffffffffff8111156200037957600080fd5b62000387888289016200029c565b9150509295509295909350565b6000604051905081810181811067ffffffffffffffff82111715620003be57620003bd620005e9565b5b8060405250919050565b600067ffffffffffffffff821115620003e657620003e5620005e9565b5b601f19601f8301169050602081019050919050565b6000620004088262000515565b9150620004158362000515565b9250827fffffffffffffffffffffffffffffffffffffffffffffffffffffffffffffffff038211156200044d576200044c6200058b565b5b828201905092915050565b6000620004658262000515565b9150620004728362000515565b9250817fffffffffffffffffffffffffffffffffffffffffffffffffffffffffffffffff0483118215151615620004ae57620004ad6200058b565b5b828202905092915050565b6000620004c682620004f5565b9050919050565b6000620004da82620004f5565b9050919050565b6000620004ee82620004b9565b9050919050565b600073ffffffffffffffffffffffffffffffffffffffff82169050919050565b6000819050919050565b60005b838110156200053f57808201518184015260208101905062000522565b838111156200054f576000848401525b50505050565b600060028204905060018216806200056e57607f821691505b60208210811415620005855762000584620005ba565b5b50919050565b7f4e487b7100000000000000000000000000000000000000000000000000000000600052601160045260246000fd5b7f4e487b7100000000000000000000000000000000000000000000000000000000600052602260045260246000fd5b7f4e487b7100000000000000000000000000000000000000000000000000000000600052604160045260246000fd5b6200062381620004cd565b81146200062f57600080fd5b50565b6200063d81620004e1565b81146200064957600080fd5b50565b620006578162000515565b81146200066357600080fd5b50565b61271380620006766000396000f3fe6080604052600436106100ec5760003560e01c806362ea82db1161008a578063c2aee3a911610059578063c2aee3a9146102df578063c458b65a1461031c578063c486456c14610347578063d57bde7914610372576100f3565b806362ea82db1461022157806378f453401461025e57806391f9015714610289578063bbafd3d4146102b4576100f3565b80633ba88ca1116100c65780633ba88ca1146101635780633ccfd60b1461018e578063454a2ab3146101b957806355a373d6146101f6576100f3565b80630216f202146100f55780630ac298dc1461012157806330cf95691461014c576100f3565b366100f357005b005b34801561010157600080fd5b5061010a61039d565b604051610118929190612237565b60405180910390f35b34801561012d57600080fd5b506101366104bf565b6040516101439190612142565b60405180910390f35b34801561015857600080fd5b506101616104e9565b005b34801561016f57600080fd5b50610178610803565b60405161018591906121e6565b60405180910390f35b34801561019a57600080fd5b506101a36109f3565b6040516101b091906121e6565b60405180910390f35b3480156101c557600080fd5b506101e060048036038101906101db9190611ca0565b610d95565b6040516101ed91906121e6565b60405180910390f35b34801561020257600080fd5b5061020b61130b565b6040516102189190612201565b60405180910390f35b34801561022d57600080fd5b5061024860048036038101906102439190611c4e565b61132f565b604051610255919061243c565b60405180910390f35b34801561026a57600080fd5b50610273611347565b604051610280919061243c565b60405180910390f35b34801561029557600080fd5b5061029e61134d565b6040516102ab9190612142565b60405180910390f35b3480156102c057600080fd5b506102c9611373565b6040516102d691906121e6565b60405180910390f35b3480156102eb57600080fd5b5061030660048036038101906103019190611c4e565b6118b3565b604051610313919061243c565b60405180910390f35b34801561032857600080fd5b506103316118cb565b60405161033e919061243c565b60405180910390f35b34801561035357600080fd5b5061035c6118d1565b604051610369919061221c565b60405180910390f35b34801561037e57600080fd5b506103876118e4565b604051610394919061243c565b60405180910390f35b60068060000180546103ae9061256b565b80601f01602080910402602001604051908101604052809291908181526020018280546103da9061256b565b80156104275780601f106103fc57610100808354040283529160200191610427565b820191906000526020600020905b81548152906001019060200180831161040a57829003601f168201915b50505050509080600101805461043c9061256b565b80601f01602080910402602001604051908101604052809291908181526020018280546104689061256b565b80156104b55780601f1061048a576101008083540402835291602001916104b5565b820191906000526020600020905b81548152906001019060200180831161049857829003601f168201915b5050505050905082565b6000600160009054906101000a900473ffffffffffffffffffffffffffffffffffffffff16905090565b600160009054906101000a900473ffffffffffffffffffffffffffffffffffffffff1673ffffffffffffffffffffffffffffffffffffffff163373ffffffffffffffffffffffffffffffffffffffff1614610579576040517f08c379a0000000000000000000000000000000000000000000000000000000008152600401610570906123fc565b60405180910390fd5b6003544211806106085750600060018111156105be577f4e487b7100000000000000000000000000000000000000000000000000000000600052602160045260246000fd5b600b60009054906101000a900460ff166001811115610606577f4e487b7100000000000000000000000000000000000000000000000000000000600052602160045260246000fd5b145b610647576040517f08c379a000000000000000000000000000000000000000000000000000000000815260040161063e906122ae565b60405180910390fd5b600060096000600560009054906101000a900473ffffffffffffffffffffffffffffffffffffffff1673ffffffffffffffffffffffffffffffffffffffff1673ffffffffffffffffffffffffffffffffffffffff168152602001908152602001600020549050600060096000600560009054906101000a900473ffffffffffffffffffffffffffffffffffffffff1673ffffffffffffffffffffffffffffffffffffffff1673ffffffffffffffffffffffffffffffffffffffff1681526020019081526020016000208190555060008054906101000a900473ffffffffffffffffffffffffffffffffffffffff1673ffffffffffffffffffffffffffffffffffffffff1663a9059cbb33836040518363ffffffff1660e01b815260040161076f9291906121bd565b602060405180830381600087803b15801561078957600080fd5b505af115801561079d573d6000803e3d6000fd5b505050506040513d601f19601f820116820180604052508101906107c19190611c77565b610800576040517f08c379a00000000000000000000000000000000000000000000000000000000081526004016107f7906123dc565b60405180910390fd5b50565b6000600160009054906101000a900473ffffffffffffffffffffffffffffffffffffffff1673ffffffffffffffffffffffffffffffffffffffff163373ffffffffffffffffffffffffffffffffffffffff1614610895576040517f08c379a000000000000000000000000000000000000000000000000000000000815260040161088c906123fc565b60405180910390fd5b600354421115801561092557506001808111156108db577f4e487b7100000000000000000000000000000000000000000000000000000000600052602160045260246000fd5b600b60009054906101000a900460ff166001811115610923577f4e487b7100000000000000000000000000000000000000000000000000000000600052602160045260246000fd5b145b610964576040517f08c379a000000000000000000000000000000000000000000000000000000000815260040161095b9061241c565b60405180910390fd5b6000600b60006101000a81548160ff021916908360018111156109b0577f4e487b7100000000000000000000000000000000000000000000000000000000600052602160045260246000fd5b02179055507f06b08932edfa95ecf10e18f8e389c58332551bbfe5faf843ed9afb329fd14118426040516109e4919061230e565b60405180910390a16001905090565b6000600354421180610a84575060006001811115610a3a577f4e487b7100000000000000000000000000000000000000000000000000000000600052602160045260246000fd5b600b60009054906101000a900460ff166001811115610a82577f4e487b7100000000000000000000000000000000000000000000000000000000600052602160045260246000fd5b145b610ac3576040517f08c379a0000000000000000000000000000000000000000000000000000000008152600401610aba906122ae565b60405180910390fd5b600560009054906101000a900473ffffffffffffffffffffffffffffffffffffffff1673ffffffffffffffffffffffffffffffffffffffff163373ffffffffffffffffffffffffffffffffffffffff161415610b54576040517f08c379a0000000000000000000000000000000000000000000000000000000008152600401610b4b9061228e565b60405180910390fd5b6000600960003373ffffffffffffffffffffffffffffffffffffffff1673ffffffffffffffffffffffffffffffffffffffff16815260200190815260200160002054905060008111610bdb576040517f08c379a0000000000000000000000000000000000000000000000000000000008152600401610bd29061237c565b60405180910390fd5b6000600960003373ffffffffffffffffffffffffffffffffffffffff1673ffffffffffffffffffffffffffffffffffffffff16815260200190815260200160002081905550610c68600a60003373ffffffffffffffffffffffffffffffffffffffff1673ffffffffffffffffffffffffffffffffffffffff168152602001908152602001600020546118ea565b60008054906101000a900473ffffffffffffffffffffffffffffffffffffffff1673ffffffffffffffffffffffffffffffffffffffff1663a9059cbb33836040518363ffffffff1660e01b8152600401610cc39291906121bd565b602060405180830381600087803b158015610cdd57600080fd5b505af1158015610cf1573d6000803e3d6000fd5b505050506040513d601f19601f82011682018060405250810190610d159190611c77565b610d54576040517f08c379a0000000000000000000000000000000000000000000000000000000008152600401610d4b9061235c565b60405180910390fd5b7f2f174ca282119315c59efaf21147aef438581dabdeb498198ae28964373dd8bc3382604051610d859291906121bd565b60405180910390a1600191505090565b60006003544211158015610e275750600180811115610ddd577f4e487b7100000000000000000000000000000000000000000000000000000000600052602160045260246000fd5b600b60009054906101000a900460ff166001811115610e25577f4e487b7100000000000000000000000000000000000000000000000000000000600052602160045260246000fd5b145b610e66576040517f08c379a0000000000000000000000000000000000000000000000000000000008152600401610e5d9061241c565b60405180910390fd5b8160008054906101000a900473ffffffffffffffffffffffffffffffffffffffff1673ffffffffffffffffffffffffffffffffffffffff1663dd62ed3e33306040518363ffffffff1660e01b8152600401610ec292919061215d565b60206040518083038186803b158015610eda57600080fd5b505afa158015610eee573d6000803e3d6000fd5b505050506040513d601f19601f82011682018060405250810190610f129190611cc9565b1015610f53576040517f08c379a0000000000000000000000000000000000000000000000000000000008152600401610f4a9061226e565b60405180910390fd5b60008211610f96576040517f08c379a0000000000000000000000000000000000000000000000000000000008152600401610f8d906123bc565b60405180910390fd5b6000600960003373ffffffffffffffffffffffffffffffffffffffff1673ffffffffffffffffffffffffffffffffffffffff1681526020019081526020016000205414611018576040517f08c379a000000000000000000000000000000000000000000000000000000000815260040161100f906122ce565b60405180910390fd5b600454821161105c576040517f08c379a0000000000000000000000000000000000000000000000000000000008152600401611053906122ee565b60405180910390fd5b33600560006101000a81548173ffffffffffffffffffffffffffffffffffffffff021916908373ffffffffffffffffffffffffffffffffffffffff160217905550816004819055506008339080600181540180825580915050600190039060005260206000200160009091909190916101000a81548173ffffffffffffffffffffffffffffffffffffffff021916908373ffffffffffffffffffffffffffffffffffffffff160217905550600454600960003373ffffffffffffffffffffffffffffffffffffffff1673ffffffffffffffffffffffffffffffffffffffff16815260200190815260200160002081905550600160088054905061115f9190612473565b600a60003373ffffffffffffffffffffffffffffffffffffffff1673ffffffffffffffffffffffffffffffffffffffff1681526020019081526020016000208190555060008054906101000a900473ffffffffffffffffffffffffffffffffffffffff1673ffffffffffffffffffffffffffffffffffffffff166323b872dd3330856040518463ffffffff1660e01b81526004016111ff93929190612186565b602060405180830381600087803b15801561121957600080fd5b505af115801561122d573d6000803e3d6000fd5b505050506040513d601f19601f820116820180604052508101906112519190611c77565b611290576040517f08c379a00000000000000000000000000000000000000000000000000000000081526004016112879061233c565b60405180910390fd5b600560009054906101000a900473ffffffffffffffffffffffffffffffffffffffff1673ffffffffffffffffffffffffffffffffffffffff167f0d993d4f8a84158f5329713d6d13ef54e77b325040c887c8b3e565cfd0cd3e216004546040516112fa919061243c565b60405180910390a260019050919050565b60008054906101000a900473ffffffffffffffffffffffffffffffffffffffff1681565b60096020528060005260406000206000915090505481565b60025481565b600560009054906101000a900473ffffffffffffffffffffffffffffffffffffffff1681565b6000600160009054906101000a900473ffffffffffffffffffffffffffffffffffffffff1673ffffffffffffffffffffffffffffffffffffffff163373ffffffffffffffffffffffffffffffffffffffff1614611405576040517f08c379a00000000000000000000000000000000000000000000000000000000081526004016113fc906123fc565b60405180910390fd5b60035442118061149457506000600181111561144a577f4e487b7100000000000000000000000000000000000000000000000000000000600052602160045260246000fd5b600b60009054906101000a900460ff166001811115611492577f4e487b7100000000000000000000000000000000000000000000000000000000600052602160045260246000fd5b145b6114d3576040517f08c379a00000000000000000000000000000000000000000000000000000000081526004016114ca906122ae565b60405180910390fd5b600060096000600560009054906101000a900473ffffffffffffffffffffffffffffffffffffffff1673ffffffffffffffffffffffffffffffffffffffff1673ffffffffffffffffffffffffffffffffffffffff16815260200190815260200160002081905550600080600090505b600880549050811015611877576000600960006008848154811061158f577f4e487b7100000000000000000000000000000000000000000000000000000000600052603260045260246000fd5b9060005260206000200160009054906101000a900473ffffffffffffffffffffffffffffffffffffffff1673ffffffffffffffffffffffffffffffffffffffff1673ffffffffffffffffffffffffffffffffffffffff1681526020019081526020016000205414611864576009600060088381548110611638577f4e487b7100000000000000000000000000000000000000000000000000000000600052603260045260246000fd5b9060005260206000200160009054906101000a900473ffffffffffffffffffffffffffffffffffffffff1673ffffffffffffffffffffffffffffffffffffffff1673ffffffffffffffffffffffffffffffffffffffff168152602001908152602001600020549150600060096000600884815481106116e0577f4e487b7100000000000000000000000000000000000000000000000000000000600052603260045260246000fd5b9060005260206000200160009054906101000a900473ffffffffffffffffffffffffffffffffffffffff1673ffffffffffffffffffffffffffffffffffffffff1673ffffffffffffffffffffffffffffffffffffffff1681526020019081526020016000208190555060008054906101000a900473ffffffffffffffffffffffffffffffffffffffff1673ffffffffffffffffffffffffffffffffffffffff1663a9059cbb600883815481106117bf577f4e487b7100000000000000000000000000000000000000000000000000000000600052603260045260246000fd5b9060005260206000200160009054906101000a900473ffffffffffffffffffffffffffffffffffffffff16846040518363ffffffff1660e01b81526004016118089291906121bd565b602060405180830381600087803b15801561182257600080fd5b505af1158015611836573d6000803e3d6000fd5b505050506040513d601f19601f8201168201806040525081019061185a9190611c77565b61186357600080fd5b5b808061186f9061259d565b915050611542565b50600160009054906101000a900473ffffffffffffffffffffffffffffffffffffffff1673ffffffffffffffffffffffffffffffffffffffff16ff5b600a6020528060005260406000206000915090505481565b60035481565b600b60009054906101000a900460ff1681565b60045481565b6008805490508110611931576040517f08c379a00000000000000000000000000000000000000000000000000000000081526004016119289061239c565b60405180910390fd5b60016008805490506119439190612473565b600a600060088481548110611981577f4e487b7100000000000000000000000000000000000000000000000000000000600052603260045260246000fd5b9060005260206000200160009054906101000a900473ffffffffffffffffffffffffffffffffffffffff1673ffffffffffffffffffffffffffffffffffffffff1673ffffffffffffffffffffffffffffffffffffffff16815260200190815260200160002081905550600860016008805490506119fe9190612473565b81548110611a35577f4e487b7100000000000000000000000000000000000000000000000000000000600052603260045260246000fd5b9060005260206000200160009054906101000a900473ffffffffffffffffffffffffffffffffffffffff1660088281548110611a9a577f4e487b7100000000000000000000000000000000000000000000000000000000600052603260045260246000fd5b9060005260206000200160006101000a81548173ffffffffffffffffffffffffffffffffffffffff021916908373ffffffffffffffffffffffffffffffffffffffff16021790555080600a600060088481548110611b21577f4e487b7100000000000000000000000000000000000000000000000000000000600052603260045260246000fd5b9060005260206000200160009054906101000a900473ffffffffffffffffffffffffffffffffffffffff1673ffffffffffffffffffffffffffffffffffffffff1673ffffffffffffffffffffffffffffffffffffffff168152602001908152602001600020819055506008805480611bc2577f4e487b7100000000000000000000000000000000000000000000000000000000600052603160045260246000fd5b6001900381819060005260206000200160006101000a81549073ffffffffffffffffffffffffffffffffffffffff0219169055905550565b600081359050611c0981612698565b92915050565b600081519050611c1e816126af565b92915050565b600081359050611c33816126c6565b92915050565b600081519050611c48816126c6565b92915050565b600060208284031215611c6057600080fd5b6000611c6e84828501611bfa565b91505092915050565b600060208284031215611c8957600080fd5b6000611c9784828501611c0f565b91505092915050565b600060208284031215611cb257600080fd5b6000611cc084828501611c24565b91505092915050565b600060208284031215611cdb57600080fd5b6000611ce984828501611c39565b91505092915050565b611cfb816124a7565b82525050565b611d0a816124b9565b82525050565b611d1981612502565b82525050565b611d2881612526565b82525050565b6000611d3982612457565b611d438185612462565b9350611d53818560208601612538565b611d5c81612673565b840191505092915050565b6000611d74601e83612462565b91507f42696464656e20746f6b656e732077657265206e6f7420616c6c6f77656400006000830152602082019050919050565b6000611db4601683612462565b91507f596f7520776f6e21204e6f206d6f6e6579206261636b000000000000000000006000830152602082019050919050565b6000611df4602d83612462565b91507f596f752063616e27742077697468647261772c207468652061756374696f6e2060008301527f6973207374696c6c206f70656e000000000000000000000000000000000000006020830152604082019050919050565b6000611e5a601083612462565b91507f596f7520616c72656164792062616465000000000000000000000000000000006000830152602082019050919050565b6000611e9a602083612462565b91507f596f752063616e2774206269642c204d616b65206120686967686572204269646000830152602082019050919050565b6000611eda601183612462565b91507f41756374696f6e2043616e63656c6c65640000000000000000000000000000006000830152602082019050919050565b6000611f1a601f83612462565b91507f5472616e7366657220746f6b656e732066726f6d20626964206661696c6564006000830152602082019050919050565b6000611f5a602483612462565b91507f5472616e73666572206f66207769746864726177656420746f6b656e7320666160008301527f696c6564000000000000000000000000000000000000000000000000000000006020830152604082019050919050565b6000611fc0601083612462565b91507f446f6e27742077697468647261772030000000000000000000000000000000006000830152602082019050919050565b6000612000601283612462565b91507f496e646578206f7574206f662072616e676500000000000000000000000000006000830152602082019050919050565b6000612040601283612462565b91507f506c656173652073656e6420746f6b656e7300000000000000000000000000006000830152602082019050919050565b6000612080601b83612462565b91507f54616b696e672077696e6e657220746f6b656e73206661696c656400000000006000830152602082019050919050565b60006120c0600b83612462565b91507f4e6f74206f776e657220330000000000000000000000000000000000000000006000830152602082019050919050565b6000612100601183612462565b91507f416374696f6e206973206f6e676f696e670000000000000000000000000000006000830152602082019050919050565b61213c816124f8565b82525050565b60006020820190506121576000830184611cf2565b92915050565b60006040820190506121726000830185611cf2565b61217f6020830184611cf2565b9392505050565b600060608201905061219b6000830186611cf2565b6121a86020830185611cf2565b6121b56040830184612133565b949350505050565b60006040820190506121d26000830185611cf2565b6121df6020830184612133565b9392505050565b60006020820190506121fb6000830184611d01565b92915050565b60006020820190506122166000830184611d10565b92915050565b60006020820190506122316000830184611d1f565b92915050565b600060408201905081810360008301526122518185611d2e565b905081810360208301526122658184611d2e565b90509392505050565b6000602082019050818103600083015261228781611d67565b9050919050565b600060208201905081810360008301526122a781611da7565b9050919050565b600060208201905081810360008301526122c781611de7565b9050919050565b600060208201905081810360008301526122e781611e4d565b9050919050565b6000602082019050818103600083015261230781611e8d565b9050919050565b6000604082019050818103600083015261232781611ecd565b90506123366020830184612133565b92915050565b6000602082019050818103600083015261235581611f0d565b9050919050565b6000602082019050818103600083015261237581611f4d565b9050919050565b6000602082019050818103600083015261239581611fb3565b9050919050565b600060208201905081810360008301526123b581611ff3565b9050919050565b600060208201905081810360008301526123d581612033565b9050919050565b600060208201905081810360008301526123f581612073565b9050919050565b60006020820190508181036000830152612415816120b3565b9050919050565b60006020820190508181036000830152612435816120f3565b9050919050565b60006020820190506124516000830184612133565b92915050565b600081519050919050565b600082825260208201905092915050565b600061247e826124f8565b9150612489836124f8565b92508282101561249c5761249b6125e6565b5b828203905092915050565b60006124b2826124d8565b9050919050565b60008115159050919050565b60008190506124d382612684565b919050565b600073ffffffffffffffffffffffffffffffffffffffff82169050919050565b6000819050919050565b600061250d82612514565b9050919050565b600061251f826124d8565b9050919050565b6000612531826124c5565b9050919050565b60005b8381101561255657808201518184015260208101905061253b565b83811115612565576000848401525b50505050565b6000600282049050600182168061258357607f821691505b6020821081141561259757612596612644565b5b50919050565b60006125a8826124f8565b91507fffffffffffffffffffffffffffffffffffffffffffffffffffffffffffffffff8214156125db576125da6125e6565b5b600182019050919050565b7f4e487b7100000000000000000000000000000000000000000000000000000000600052601160045260246000fd5b7f4e487b7100000000000000000000000000000000000000000000000000000000600052602160045260246000fd5b7f4e487b7100000000000000000000000000000000000000000000000000000000600052602260045260246000fd5b6000601f19601f8301169050919050565b6002811061269557612694612615565b5b50565b6126a1816124a7565b81146126ac57600080fd5b50565b6126b8816124b9565b81146126c357600080fd5b50565b6126cf816124f8565b81146126da57600080fd5b5056fea2646970667358221220a7a233fb420c9ad985ecf19502917df37b6676becd7048a97440cb159c0aef2764736f6c63430008000033",
  "immutableReferences": {},
  "source": "// SPDX-License-Identifier: MIT\n\npragma solidity ^0.8.0;\n\nimport \"./SampleToken.sol\";\n\ncontract Auction {\n    SampleToken public tokenContract;\n    address payable internal auction_owner;\n    uint256 public auction_start;\n    uint256 public auction_end;\n    uint256 public highestBid;\n    address public highestBidder;\n\n    enum auction_state {\n        CANCELLED,\n        STARTED\n    }\n\n    struct car {\n        string Brand;\n        string Rnumber;\n    }\n\n    car public Mycar;\n    address[] bidders;\n\n    mapping(address => uint256) public bids;\n    mapping(address => uint256) public bidder_index;\n\n    auction_state public STATE;\n\n    modifier an_ongoing_auction() {\n        require(\n            block.timestamp <= auction_end && STATE == auction_state.STARTED,\n            \"Action is ongoing\"\n        );\n        _;\n    }\n\n    modifier only_owner() {\n        require(msg.sender == auction_owner, \"Not owner 3\");\n        _;\n    }\n\n    modifier not_winner() {\n        require(msg.sender != highestBidder, \"You won! No money back\");\n        _;\n    }\n\n    modifier auction_ended() {\n        require(\n            block.timestamp > auction_end || STATE == auction_state.CANCELLED,\n            \"You can't withdraw, the auction is still open\"\n        );\n        _;\n    }\n\n    function bid(uint256) public virtual returns (bool) {}\n\n    function withdraw() public virtual returns (bool) {}\n\n    function cancel_auction() external virtual returns (bool) {}\n\n    event BidEvent(address indexed highestBidder, uint256 highestBid);\n    event WithdrawalEvent(address withdrawer, uint256 amount);\n    event CanceledEvent(string message, uint256 time);\n}\n\ncontract MyAuction is Auction {\n    constructor(\n        SampleToken _tokenContract,\n        uint256 _biddingTime,\n        address payable _owner,\n        string memory _brand,\n        string memory _Rnumber\n    ) {\n        tokenContract = _tokenContract;\n        auction_owner = _owner;\n        auction_start = block.timestamp;\n        auction_end = auction_start + _biddingTime * 1 hours;\n        STATE = auction_state.STARTED;\n        Mycar.Brand = _brand;\n        Mycar.Rnumber = _Rnumber;\n    }\n\n    function get_owner() public view returns (address) {\n        return auction_owner;\n    }\n\n    fallback() external payable {}\n\n    receive() external payable {}\n\n    function bid(uint256 value)\n        public\n        override\n        an_ongoing_auction\n        returns (bool)\n    {\n        require(\n            tokenContract.allowance(msg.sender, address(this)) >= value,\n            \"Bidden tokens were not allowed\"\n        );\n        require(value > 0, \"Please send tokens\");\n        require(bids[msg.sender] == 0, \"You already bade\");\n        require(value > highestBid, \"You can't bid, Make a higher Bid\");\n\n        highestBidder = msg.sender;\n        highestBid = value;\n        bidders.push(msg.sender);\n        bids[msg.sender] = highestBid;\n        bidder_index[msg.sender] = bidders.length - 1;\n\n        require(\n            tokenContract.transferFrom(msg.sender, address(this), value),\n            \"Transfer tokens from bid failed\"\n        );\n        emit BidEvent(highestBidder, highestBid);\n\n        return true;\n    }\n\n    function cancel_auction()\n        external\n        override\n        only_owner\n        an_ongoing_auction\n        returns (bool)\n    {\n        STATE = auction_state.CANCELLED;\n        emit CanceledEvent(\"Auction Cancelled\", block.timestamp);\n        return true;\n    }\n\n    function withdraw()\n        public\n        override\n        auction_ended\n        not_winner\n        returns (bool)\n    {\n        uint256 amount;\n        amount = bids[msg.sender];\n        require(amount > 0, \"Don't withdraw 0\");\n\n        bids[msg.sender] = 0;\n        remove_bidder(bidder_index[msg.sender]);\n\n        require(\n            tokenContract.transfer(msg.sender, amount),\n            \"Transfer of withdrawed tokens failed\"\n        );\n        emit WithdrawalEvent(msg.sender, amount);\n        return true;\n    }\n\n    function take_winner_money() external only_owner auction_ended {\n        uint256 amount = bids[highestBidder];\n        bids[highestBidder] = 0;\n        require(\n            tokenContract.transfer(msg.sender, amount),\n            \"Taking winner tokens failed\"\n        );\n    }\n\n    function remove_bidder(uint256 index) private {\n        require(index < bidders.length, \"Index out of range\");\n\n        bidder_index[bidders[index]] = bidders.length - 1;\n        bidders[index] = bidders[bidders.length - 1];\n        bidder_index[bidders[index]] = index;\n\n        bidders.pop();\n    }\n\n    function destruct_auction()\n        external\n        only_owner\n        auction_ended\n        returns (bool)\n    {\n        bids[highestBidder] = 0;\n        uint256 amount;\n        for (uint256 i = 0; i < bidders.length; i++) {\n            if (bids[bidders[i]] != 0) {\n                amount = bids[bidders[i]];\n                bids[bidders[i]] = 0;\n                require(tokenContract.transfer(bidders[i], amount));\n            }\n        }\n\n        selfdestruct(auction_owner);\n        return true;\n    }\n}\n",
  "sourcePath": "/home/sergiu/Downloads/homework2/contracts/MyAuction.sol",
  "compiler": {
    "name": "solc",
    "version": "0.8.0+commit.c7dfd78e.Emscripten.clang"
  },
  "schemaVersion": "3.4.11",
  "updatedAt": "2023-01-03T00:59:51.090Z",
  "networkType": "ethereum",
  "devdoc": {
    "kind": "dev",
    "methods": {},
    "version": 1
  },
  "userdoc": {
    "kind": "user",
    "methods": {},
    "version": 1
  }
}