{
  "contractName": "SampleTokenSale",
  "abi": [
    {
      "inputs": [
        {
          "internalType": "contract SampleToken",
          "name": "_tokenContract",
          "type": "address"
        },
        {
          "internalType": "uint256",
          "name": "_tokenPrice",
          "type": "uint256"
        }
      ],
      "stateMutability": "nonpayable",
      "type": "constructor"
    },
    {
      "anonymous": false,
      "inputs": [
        {
          "indexed": true,
          "internalType": "address",
          "name": "_buyer",
          "type": "address"
        },
        {
          "indexed": true,
          "internalType": "uint256",
          "name": "_amount",
          "type": "uint256"
        }
      ],
      "name": "Sell",
      "type": "event"
    },
    {
      "inputs": [],
      "name": "tokenContract",
      "outputs": [
        {
          "internalType": "contract SampleToken",
          "name": "",
          "type": "address"
        }
      ],
      "stateMutability": "view",
      "type": "function",
      "constant": true
    },
    {
      "inputs": [],
      "name": "tokenPrice",
      "outputs": [
        {
          "internalType": "uint256",
          "name": "",
          "type": "uint256"
        }
      ],
      "stateMutability": "view",
      "type": "function",
      "constant": true
    },
    {
      "inputs": [],
      "name": "tokensSold",
      "outputs": [
        {
          "internalType": "uint256",
          "name": "",
          "type": "uint256"
        }
      ],
      "stateMutability": "view",
      "type": "function",
      "constant": true
    },
    {
      "inputs": [
        {
          "internalType": "uint256",
          "name": "_tokenPrice",
          "type": "uint256"
        }
      ],
      "name": "updateTokenPrice",
      "outputs": [],
      "stateMutability": "nonpayable",
      "type": "function"
    },
    {
      "inputs": [
        {
          "internalType": "uint256",
          "name": "_numberOfTokens",
          "type": "uint256"
        }
      ],
      "name": "buyTokens",
      "outputs": [],
      "stateMutability": "payable",
      "type": "function",
      "payable": true
    },
    {
      "inputs": [],
      "name": "endSale",
      "outputs": [],
      "stateMutability": "nonpayable",
      "type": "function"
    }
  ],
  "bytecode": "0x60806040523480156200001157600080fd5b5060405162001316380380620013168339818101604052810190620000379190620000f5565b33600260006101000a81548173ffffffffffffffffffffffffffffffffffffffff021916908373ffffffffffffffffffffffffffffffffffffffff160217905550816000806101000a81548173ffffffffffffffffffffffffffffffffffffffff021916908373ffffffffffffffffffffffffffffffffffffffff160217905550806001819055505050620001bc565b600081519050620000d88162000188565b92915050565b600081519050620000ef81620001a2565b92915050565b600080604083850312156200010957600080fd5b60006200011985828601620000c7565b92505060206200012c85828601620000de565b9150509250929050565b600062000143826200015e565b9050919050565b6000620001578262000136565b9050919050565b600073ffffffffffffffffffffffffffffffffffffffff82169050919050565b6000819050919050565b62000193816200014a565b81146200019f57600080fd5b50565b620001ad816200017e565b8114620001b957600080fd5b50565b61114a80620001cc6000396000f3fe6080604052600436106100555760003560e01c80633610724e1461005a578063380d831b14610076578063518ab2a81461008d57806355a373d6146100b8578063676c0d77146100e35780637ff9b5961461010c575b600080fd5b610074600480360381019061006f9190610b37565b610137565b005b34801561008257600080fd5b5061008b610578565b005b34801561009957600080fd5b506100a2610a05565b6040516100af9190610f3b565b60405180910390f35b3480156100c457600080fd5b506100cd610a0b565b6040516100da9190610e40565b60405180910390f35b3480156100ef57600080fd5b5061010a60048036038101906101059190610b37565b610a2f565b005b34801561011857600080fd5b50610121610ac9565b60405161012e9190610f3b565b60405180910390f35b600154816101459190610fbd565b341015610187576040517f08c379a000000000000000000000000000000000000000000000000000000000815260040161017e90610e7b565b60405180910390fd5b8060008054906101000a900473ffffffffffffffffffffffffffffffffffffffff1673ffffffffffffffffffffffffffffffffffffffff1663dd62ed3e600260009054906101000a900473ffffffffffffffffffffffffffffffffffffffff16306040518363ffffffff1660e01b8152600401610205929190610db7565b60206040518083038186803b15801561021d57600080fd5b505afa158015610231573d6000803e3d6000fd5b505050506040513d601f19601f820116820180604052508101906102559190610b60565b1015610296576040517f08c379a000000000000000000000000000000000000000000000000000000000815260040161028d90610edb565b60405180910390fd5b8060008054906101000a900473ffffffffffffffffffffffffffffffffffffffff1673ffffffffffffffffffffffffffffffffffffffff166370a08231600260009054906101000a900473ffffffffffffffffffffffffffffffffffffffff166040518263ffffffff1660e01b81526004016103129190610d9c565b60206040518083038186803b15801561032a57600080fd5b505afa15801561033e573d6000803e3d6000fd5b505050506040513d601f19601f820116820180604052508101906103629190610b60565b10156103a3576040517f08c379a000000000000000000000000000000000000000000000000000000000815260040161039a90610f1b565b60405180910390fd5b80600360008282546103b59190610f67565b925050819055506000600154826103cc9190610fbd565b346103d79190611017565b905060008054906101000a900473ffffffffffffffffffffffffffffffffffffffff1673ffffffffffffffffffffffffffffffffffffffff166323b872dd600260009054906101000a900473ffffffffffffffffffffffffffffffffffffffff1633856040518463ffffffff1660e01b815260040161045893929190610de0565b602060405180830381600087803b15801561047257600080fd5b505af1158015610486573d6000803e3d6000fd5b505050506040513d601f19601f820116820180604052508101906104aa9190610b0e565b6104e9576040517f08c379a00000000000000000000000000000000000000000000000000000000081526004016104e090610efb565b60405180910390fd5b3373ffffffffffffffffffffffffffffffffffffffff166108fc829081150290604051600060405180830381858888f1935050505015801561052f573d6000803e3d6000fd5b50813373ffffffffffffffffffffffffffffffffffffffff167f5e5e995ce3133561afceaa51a9a154d5db228cd7525d34df5185582c18d3df0960405160405180910390a35050565b600260009054906101000a900473ffffffffffffffffffffffffffffffffffffffff1673ffffffffffffffffffffffffffffffffffffffff163373ffffffffffffffffffffffffffffffffffffffff1614610608576040517f08c379a00000000000000000000000000000000000000000000000000000000081526004016105ff90610ebb565b60405180910390fd5b60008054906101000a900473ffffffffffffffffffffffffffffffffffffffff1673ffffffffffffffffffffffffffffffffffffffff1663a9059cbb600260009054906101000a900473ffffffffffffffffffffffffffffffffffffffff1660008054906101000a900473ffffffffffffffffffffffffffffffffffffffff1673ffffffffffffffffffffffffffffffffffffffff166370a08231306040518263ffffffff1660e01b81526004016106c09190610d9c565b60206040518083038186803b1580156106d857600080fd5b505afa1580156106ec573d6000803e3d6000fd5b505050506040513d601f19601f820116820180604052508101906107109190610b60565b6040518363ffffffff1660e01b815260040161072d929190610e17565b602060405180830381600087803b15801561074757600080fd5b505af115801561075b573d6000803e3d6000fd5b505050506040513d601f19601f8201168201806040525081019061077f9190610b0e565b6107be576040517f08c379a00000000000000000000000000000000000000000000000000000000081526004016107b590610e9b565b60405180910390fd5b60008054906101000a900473ffffffffffffffffffffffffffffffffffffffff1673ffffffffffffffffffffffffffffffffffffffff166323b872dd600260009054906101000a900473ffffffffffffffffffffffffffffffffffffffff16600260009054906101000a900473ffffffffffffffffffffffffffffffffffffffff1660008054906101000a900473ffffffffffffffffffffffffffffffffffffffff1673ffffffffffffffffffffffffffffffffffffffff1663dd62ed3e600260009054906101000a900473ffffffffffffffffffffffffffffffffffffffff16306040518363ffffffff1660e01b81526004016108bd929190610db7565b60206040518083038186803b1580156108d557600080fd5b505afa1580156108e9573d6000803e3d6000fd5b505050506040513d601f19601f8201168201806040525081019061090d9190610b60565b6040518463ffffffff1660e01b815260040161092b93929190610de0565b602060405180830381600087803b15801561094557600080fd5b505af1158015610959573d6000803e3d6000fd5b505050506040513d601f19601f8201168201806040525081019061097d9190610b0e565b6109bc576040517f08c379a00000000000000000000000000000000000000000000000000000000081526004016109b390610e5b565b60405180910390fd5b3373ffffffffffffffffffffffffffffffffffffffff166108fc479081150290604051600060405180830381858888f19350505050158015610a02573d6000803e3d6000fd5b50565b60035481565b60008054906101000a900473ffffffffffffffffffffffffffffffffffffffff1681565b600260009054906101000a900473ffffffffffffffffffffffffffffffffffffffff1673ffffffffffffffffffffffffffffffffffffffff163373ffffffffffffffffffffffffffffffffffffffff1614610abf576040517f08c379a0000000000000000000000000000000000000000000000000000000008152600401610ab690610ebb565b60405180910390fd5b8060018190555050565b60015481565b600081519050610ade816110e6565b92915050565b600081359050610af3816110fd565b92915050565b600081519050610b08816110fd565b92915050565b600060208284031215610b2057600080fd5b6000610b2e84828501610acf565b91505092915050565b600060208284031215610b4957600080fd5b6000610b5784828501610ae4565b91505092915050565b600060208284031215610b7257600080fd5b6000610b8084828501610af9565b91505092915050565b610b928161104b565b82525050565b610ba181611093565b82525050565b6000610bb4602383610f56565b91507f5472616e7366657220746f206f776e65722066726f6d206f776e65722066616960008301527f6c656400000000000000000000000000000000000000000000000000000000006020830152604082019050919050565b6000610c1a601183610f56565b91507f4d6f7265206d6f6e657920706c656173650000000000000000000000000000006000830152602082019050919050565b6000610c5a601883610f56565b91507f5472616e7366657220746f206f776e6572206661696c656400000000000000006000830152602082019050919050565b6000610c9a600b83610f56565b91507f4e6f74206f776e657220320000000000000000000000000000000000000000006000830152602082019050919050565b6000610cda601483610f56565b91507f4c65737320746f6b656e7320696e2073746f636b0000000000000000000000006000830152602082019050919050565b6000610d1a601883610f56565b91507f5472616e7366657220746f206275796572206661696c656400000000000000006000830152602082019050919050565b6000610d5a600d83610f56565b91507f4f776e657220697320706f6f72000000000000000000000000000000000000006000830152602082019050919050565b610d9681611089565b82525050565b6000602082019050610db16000830184610b89565b92915050565b6000604082019050610dcc6000830185610b89565b610dd96020830184610b89565b9392505050565b6000606082019050610df56000830186610b89565b610e026020830185610b89565b610e0f6040830184610d8d565b949350505050565b6000604082019050610e2c6000830185610b89565b610e396020830184610d8d565b9392505050565b6000602082019050610e556000830184610b98565b92915050565b60006020820190508181036000830152610e7481610ba7565b9050919050565b60006020820190508181036000830152610e9481610c0d565b9050919050565b60006020820190508181036000830152610eb481610c4d565b9050919050565b60006020820190508181036000830152610ed481610c8d565b9050919050565b60006020820190508181036000830152610ef481610ccd565b9050919050565b60006020820190508181036000830152610f1481610d0d565b9050919050565b60006020820190508181036000830152610f3481610d4d565b9050919050565b6000602082019050610f506000830184610d8d565b92915050565b600082825260208201905092915050565b6000610f7282611089565b9150610f7d83611089565b9250827fffffffffffffffffffffffffffffffffffffffffffffffffffffffffffffffff03821115610fb257610fb16110b7565b5b828201905092915050565b6000610fc882611089565b9150610fd383611089565b9250817fffffffffffffffffffffffffffffffffffffffffffffffffffffffffffffffff048311821515161561100c5761100b6110b7565b5b828202905092915050565b600061102282611089565b915061102d83611089565b9250828210156110405761103f6110b7565b5b828203905092915050565b600061105682611069565b9050919050565b60008115159050919050565b600073ffffffffffffffffffffffffffffffffffffffff82169050919050565b6000819050919050565b600061109e826110a5565b9050919050565b60006110b082611069565b9050919050565b7f4e487b7100000000000000000000000000000000000000000000000000000000600052601160045260246000fd5b6110ef8161105d565b81146110fa57600080fd5b50565b61110681611089565b811461111157600080fd5b5056fea26469706673582212205ee263fd84546c7dba6b8d4ea875cce1a9a5e8c211a72ac409f3f5a0bea72a6664736f6c63430008000033",
  "immutableReferences": {},
  "source": "// SPDX-License-Identifier: MIT\n\npragma solidity ^0.8.0;\n\nimport \"./SampleToken.sol\";\n\ncontract SampleTokenSale {\n    SampleToken public tokenContract;\n    uint256 public tokenPrice;\n    address owner;\n\n    uint256 public tokensSold;\n\n    event Sell(address indexed _buyer, uint256 indexed _amount);\n\n    modifier isOwner() {\n        require(msg.sender == owner, \"Not owner 2\");\n        _;\n    }\n\n    constructor(SampleToken _tokenContract, uint256 _tokenPrice) {\n        owner = msg.sender;\n        tokenContract = _tokenContract;\n        tokenPrice = _tokenPrice;\n    }\n\n    function updateTokenPrice(uint256 _tokenPrice) external isOwner {\n        tokenPrice = _tokenPrice;\n    }\n\n    function buyTokens(uint256 _numberOfTokens) public payable {\n        require(msg.value >= _numberOfTokens * tokenPrice, \"More money please\");\n\n        require(\n            tokenContract.allowance(owner, address(this)) >= _numberOfTokens,\n            \"Less tokens in stock\"\n        );\n        require(\n            tokenContract.balanceOf(owner) >= _numberOfTokens,\n            \"Owner is poor\"\n        );\n\n        tokensSold += _numberOfTokens;\n        uint256 remaining = msg.value - _numberOfTokens * tokenPrice;\n\n        require(\n            tokenContract.transferFrom(owner, msg.sender, _numberOfTokens),\n            \"Transfer to buyer failed\"\n        );\n        payable(msg.sender).transfer(remaining);\n        emit Sell(msg.sender, _numberOfTokens);\n    }\n\n    function endSale() external isOwner {\n        require(\n            tokenContract.transfer(\n                owner,\n                tokenContract.balanceOf(address(this))\n            ),\n            \"Transfer to owner failed\"\n        );\n        require(\n            tokenContract.transferFrom(\n                owner,\n                owner,\n                tokenContract.allowance(owner, address(this))\n            ),\n            \"Transfer to owner from owner failed\"\n        );\n        payable(msg.sender).transfer(address(this).balance);\n    }\n}\n",
  "sourcePath": "/home/sergiu/Downloads/homework2/contracts/SampleTokenSale.sol",
  "compiler": {
    "name": "solc",
    "version": "0.8.0+commit.c7dfd78e.Emscripten.clang"
  },
  "schemaVersion": "3.4.11",
  "updatedAt": "2023-01-03T00:59:51.141Z",
  "networkType": "ethereum",
  "devdoc": {
    "kind": "dev",
    "methods": {},
    "version": 1
  },
  "userdoc": {
    "kind": "user",
    "methods": {},
    "version": 1
  }
}