{
  "contractName": "SampleToken",
  "abi": [
    {
      "inputs": [
        {
          "internalType": "uint256",
          "name": "_initialSupply",
          "type": "uint256"
        }
      ],
      "stateMutability": "nonpayable",
      "type": "constructor"
    },
    {
      "anonymous": false,
      "inputs": [
        {
          "indexed": true,
          "internalType": "address",
          "name": "_owner",
          "type": "address"
        },
        {
          "indexed": true,
          "internalType": "address",
          "name": "_spender",
          "type": "address"
        },
        {
          "indexed": false,
          "internalType": "uint256",
          "name": "_value",
          "type": "uint256"
        }
      ],
      "name": "Approval",
      "type": "event"
    },
    {
      "anonymous": false,
      "inputs": [
        {
          "indexed": true,
          "internalType": "address",
          "name": "_from",
          "type": "address"
        },
        {
          "indexed": true,
          "internalType": "address",
          "name": "_to",
          "type": "address"
        },
        {
          "indexed": false,
          "internalType": "uint256",
          "name": "_value",
          "type": "uint256"
        }
      ],
      "name": "Transfer",
      "type": "event"
    },
    {
      "inputs": [],
      "name": "name",
      "outputs": [
        {
          "internalType": "string",
          "name": "",
          "type": "string"
        }
      ],
      "stateMutability": "view",
      "type": "function",
      "constant": true
    },
    {
      "inputs": [],
      "name": "symbol",
      "outputs": [
        {
          "internalType": "string",
          "name": "",
          "type": "string"
        }
      ],
      "stateMutability": "view",
      "type": "function",
      "constant": true
    },
    {
      "inputs": [
        {
          "internalType": "address",
          "name": "_owner",
          "type": "address"
        }
      ],
      "name": "balanceOf",
      "outputs": [
        {
          "internalType": "uint256",
          "name": "",
          "type": "uint256"
        }
      ],
      "stateMutability": "view",
      "type": "function",
      "constant": true
    },
    {
      "inputs": [],
      "name": "totalSupply",
      "outputs": [
        {
          "internalType": "uint256",
          "name": "",
          "type": "uint256"
        }
      ],
      "stateMutability": "view",
      "type": "function",
      "constant": true
    },
    {
      "inputs": [
        {
          "internalType": "address",
          "name": "_to",
          "type": "address"
        },
        {
          "internalType": "uint256",
          "name": "_value",
          "type": "uint256"
        }
      ],
      "name": "transfer",
      "outputs": [
        {
          "internalType": "bool",
          "name": "success",
          "type": "bool"
        }
      ],
      "stateMutability": "nonpayable",
      "type": "function"
    },
    {
      "inputs": [
        {
          "internalType": "address",
          "name": "_spender",
          "type": "address"
        },
        {
          "internalType": "uint256",
          "name": "_value",
          "type": "uint256"
        }
      ],
      "name": "approve",
      "outputs": [
        {
          "internalType": "bool",
          "name": "success",
          "type": "bool"
        }
      ],
      "stateMutability": "nonpayable",
      "type": "function"
    },
    {
      "inputs": [
        {
          "internalType": "address",
          "name": "_owner",
          "type": "address"
        },
        {
          "internalType": "address",
          "name": "_spender",
          "type": "address"
        }
      ],
      "name": "allowance",
      "outputs": [
        {
          "internalType": "uint256",
          "name": "",
          "type": "uint256"
        }
      ],
      "stateMutability": "view",
      "type": "function",
      "constant": true
    },
    {
      "inputs": [
        {
          "internalType": "address",
          "name": "_from",
          "type": "address"
        },
        {
          "internalType": "address",
          "name": "_to",
          "type": "address"
        },
        {
          "internalType": "uint256",
          "name": "_value",
          "type": "uint256"
        }
      ],
      "name": "transferFrom",
      "outputs": [
        {
          "internalType": "bool",
          "name": "success",
          "type": "bool"
        }
      ],
      "stateMutability": "nonpayable",
      "type": "function"
    },
    {
      "inputs": [
        {
          "internalType": "address",
          "name": "_tokenSaleAddress",
          "type": "address"
        }
      ],
      "name": "setTokenSaleAddress",
      "outputs": [],
      "stateMutability": "nonpayable",
      "type": "function"
    }
  ],
  "bytecode": "0x60806040526040518060400160405280600c81526020017f53616d706c6520546f6b656e0000000000000000000000000000000000000000815250600090805190602001906200005192919062000219565b506040518060400160405280600381526020017f544f4b0000000000000000000000000000000000000000000000000000000000815250600190805190602001906200009f92919062000219565b50348015620000ad57600080fd5b506040516200163d3803806200163d8339818101604052810190620000d39190620002e0565b80600660003373ffffffffffffffffffffffffffffffffffffffff1673ffffffffffffffffffffffffffffffffffffffff1681526020019081526020016000208190555080600281905550600060038190555033600460006101000a81548173ffffffffffffffffffffffffffffffffffffffff021916908373ffffffffffffffffffffffffffffffffffffffff16021790555033600560006101000a81548173ffffffffffffffffffffffffffffffffffffffff021916908373ffffffffffffffffffffffffffffffffffffffff1602179055503373ffffffffffffffffffffffffffffffffffffffff16600073ffffffffffffffffffffffffffffffffffffffff167fddf252ad1be2c89b69c2b068fc378daa952ba7f163c4a11628f55a4df523b3ef6002546040516200020a91906200031d565b60405180910390a350620003c3565b828054620002279062000344565b90600052602060002090601f0160209004810192826200024b576000855562000297565b82601f106200026657805160ff191683800117855562000297565b8280016001018555821562000297579182015b828111156200029657825182559160200191906001019062000279565b5b509050620002a69190620002aa565b5090565b5b80821115620002c5576000816000905550600101620002ab565b5090565b600081519050620002da81620003a9565b92915050565b600060208284031215620002f357600080fd5b60006200030384828501620002c9565b91505092915050565b62000317816200033a565b82525050565b60006020820190506200033460008301846200030c565b92915050565b6000819050919050565b600060028204905060018216806200035d57607f821691505b602082108114156200037457620003736200037a565b5b50919050565b7f4e487b7100000000000000000000000000000000000000000000000000000000600052602260045260246000fd5b620003b4816200033a565b8114620003c057600080fd5b50565b61126a80620003d36000396000f3fe608060405234801561001057600080fd5b50600436106100935760003560e01c80635afe5207116100665780635afe52071461013457806370a082311461015057806395d89b4114610180578063a9059cbb1461019e578063dd62ed3e146101ce57610093565b806306fdde0314610098578063095ea7b3146100b657806318160ddd146100e657806323b872dd14610104575b600080fd5b6100a06101fe565b6040516100ad9190610f95565b60405180910390f35b6100d060048036038101906100cb9190610dfd565b61028c565b6040516100dd9190610f5f565b60405180910390f35b6100ee610404565b6040516100fb9190611017565b60405180910390f35b61011e60048036038101906101199190610dae565b61040e565b60405161012b9190610f5f565b60405180910390f35b61014e60048036038101906101499190610d49565b610704565b005b61016a60048036038101906101659190610d49565b6107d8565b6040516101779190611017565b60405180910390f35b610188610821565b6040516101959190610f95565b60405180910390f35b6101b860048036038101906101b39190610dfd565b6108af565b6040516101c59190610f5f565b60405180910390f35b6101e860048036038101906101e39190610d72565b610a5b565b6040516101f59190611017565b60405180910390f35b6000805461020b90611165565b80601f016020809104026020016040519081016040528092919081815260200182805461023790611165565b80156102845780601f1061025957610100808354040283529160200191610284565b820191906000526020600020905b81548152906001019060200180831161026757829003601f168201915b505050505081565b6000338280600660008473ffffffffffffffffffffffffffffffffffffffff1673ffffffffffffffffffffffffffffffffffffffff168152602001908152602001600020541015610312576040517f08c379a000000000000000000000000000000000000000000000000000000000815260040161030990610ff7565b60405180910390fd5b83600760003373ffffffffffffffffffffffffffffffffffffffff1673ffffffffffffffffffffffffffffffffffffffff16815260200190815260200160002060008773ffffffffffffffffffffffffffffffffffffffff1673ffffffffffffffffffffffffffffffffffffffff168152602001908152602001600020819055508473ffffffffffffffffffffffffffffffffffffffff163373ffffffffffffffffffffffffffffffffffffffff167f8c5be1e5ebec7d5bd14f71427d1e84f3dd0314c0f7b2291e5b200ac8c7c3b925866040516103f09190611017565b60405180910390a360019250505092915050565b6000600254905090565b6000838280600660008473ffffffffffffffffffffffffffffffffffffffff1673ffffffffffffffffffffffffffffffffffffffff168152602001908152602001600020541015610494576040517f08c379a000000000000000000000000000000000000000000000000000000000815260040161048b90610ff7565b60405180910390fd5b600760008773ffffffffffffffffffffffffffffffffffffffff1673ffffffffffffffffffffffffffffffffffffffff16815260200190815260200160002060003373ffffffffffffffffffffffffffffffffffffffff1673ffffffffffffffffffffffffffffffffffffffff16815260200190815260200160002054841115610553576040517f08c379a000000000000000000000000000000000000000000000000000000000815260040161054a90610fd7565b60405180910390fd5b83600660008873ffffffffffffffffffffffffffffffffffffffff1673ffffffffffffffffffffffffffffffffffffffff16815260200190815260200160002060008282546105a291906110a4565b9250508190555083600660008773ffffffffffffffffffffffffffffffffffffffff1673ffffffffffffffffffffffffffffffffffffffff16815260200190815260200160002060008282546105f8919061104e565b9250508190555083600760008873ffffffffffffffffffffffffffffffffffffffff1673ffffffffffffffffffffffffffffffffffffffff16815260200190815260200160002060003373ffffffffffffffffffffffffffffffffffffffff1673ffffffffffffffffffffffffffffffffffffffff168152602001908152602001600020600082825461068b91906110a4565b925050819055508473ffffffffffffffffffffffffffffffffffffffff168673ffffffffffffffffffffffffffffffffffffffff167fddf252ad1be2c89b69c2b068fc378daa952ba7f163c4a11628f55a4df523b3ef866040516106ef9190611017565b60405180910390a36001925050509392505050565b600460009054906101000a900473ffffffffffffffffffffffffffffffffffffffff1673ffffffffffffffffffffffffffffffffffffffff163373ffffffffffffffffffffffffffffffffffffffff1614610794576040517f08c379a000000000000000000000000000000000000000000000000000000000815260040161078b90610fb7565b60405180910390fd5b80600560006101000a81548173ffffffffffffffffffffffffffffffffffffffff021916908373ffffffffffffffffffffffffffffffffffffffff16021790555050565b6000600660008373ffffffffffffffffffffffffffffffffffffffff1673ffffffffffffffffffffffffffffffffffffffff168152602001908152602001600020549050919050565b6001805461082e90611165565b80601f016020809104026020016040519081016040528092919081815260200182805461085a90611165565b80156108a75780601f1061087c576101008083540402835291602001916108a7565b820191906000526020600020905b81548152906001019060200180831161088a57829003601f168201915b505050505081565b6000338280600660008473ffffffffffffffffffffffffffffffffffffffff1673ffffffffffffffffffffffffffffffffffffffff168152602001908152602001600020541015610935576040517f08c379a000000000000000000000000000000000000000000000000000000000815260040161092c90610ff7565b60405180910390fd5b83600660003373ffffffffffffffffffffffffffffffffffffffff1673ffffffffffffffffffffffffffffffffffffffff168152602001908152602001600020600082825461098491906110a4565b9250508190555083600660008773ffffffffffffffffffffffffffffffffffffffff1673ffffffffffffffffffffffffffffffffffffffff16815260200190815260200160002060008282546109da919061104e565b925050819055506109ea84610ae2565b8473ffffffffffffffffffffffffffffffffffffffff163373ffffffffffffffffffffffffffffffffffffffff167fddf252ad1be2c89b69c2b068fc378daa952ba7f163c4a11628f55a4df523b3ef86604051610a479190611017565b60405180910390a360019250505092915050565b6000600760008473ffffffffffffffffffffffffffffffffffffffff1673ffffffffffffffffffffffffffffffffffffffff16815260200190815260200160002060008373ffffffffffffffffffffffffffffffffffffffff1673ffffffffffffffffffffffffffffffffffffffff16815260200190815260200160002054905092915050565b8060036000828254610af4919061104e565b925050819055505b6127106003541115610d1c5761271060036000828254610b1c91906110a4565b92505081905550600160026000828254610b36919061104e565b92505081905550600160066000600460009054906101000a900473ffffffffffffffffffffffffffffffffffffffff1673ffffffffffffffffffffffffffffffffffffffff1673ffffffffffffffffffffffffffffffffffffffff1681526020019081526020016000206000828254610baf919061104e565b92505081905550600160076000600460009054906101000a900473ffffffffffffffffffffffffffffffffffffffff1673ffffffffffffffffffffffffffffffffffffffff1673ffffffffffffffffffffffffffffffffffffffff1681526020019081526020016000206000600560009054906101000a900473ffffffffffffffffffffffffffffffffffffffff1673ffffffffffffffffffffffffffffffffffffffff1673ffffffffffffffffffffffffffffffffffffffff1681526020019081526020016000206000828254610c87919061104e565b92505081905550600460009054906101000a900473ffffffffffffffffffffffffffffffffffffffff1673ffffffffffffffffffffffffffffffffffffffff16600073ffffffffffffffffffffffffffffffffffffffff167fddf252ad1be2c89b69c2b068fc378daa952ba7f163c4a11628f55a4df523b3ef6001604051610d0f9190610f7a565b60405180910390a3610afc565b50565b600081359050610d2e81611206565b92915050565b600081359050610d438161121d565b92915050565b600060208284031215610d5b57600080fd5b6000610d6984828501610d1f565b91505092915050565b60008060408385031215610d8557600080fd5b6000610d9385828601610d1f565b9250506020610da485828601610d1f565b9150509250929050565b600080600060608486031215610dc357600080fd5b6000610dd186828701610d1f565b9350506020610de286828701610d1f565b9250506040610df386828701610d34565b9150509250925092565b60008060408385031215610e1057600080fd5b6000610e1e85828601610d1f565b9250506020610e2f85828601610d34565b9150509250929050565b610e42816110ea565b82525050565b610e5181611120565b82525050565b6000610e6282611032565b610e6c818561103d565b9350610e7c818560208601611132565b610e85816111f5565b840191505092915050565b6000610e9d600b8361103d565b91507f4e6f74206f776e657220310000000000000000000000000000000000000000006000830152602082019050919050565b6000610edd60158361103d565b91507f4e6f7420656e6f75676820617070726f766564203100000000000000000000006000830152602082019050919050565b6000610f1d60128361103d565b91507f4e6f7420656e6f756768206d6f6e6579203100000000000000000000000000006000830152602082019050919050565b610f5981611116565b82525050565b6000602082019050610f746000830184610e39565b92915050565b6000602082019050610f8f6000830184610e48565b92915050565b60006020820190508181036000830152610faf8184610e57565b905092915050565b60006020820190508181036000830152610fd081610e90565b9050919050565b60006020820190508181036000830152610ff081610ed0565b9050919050565b6000602082019050818103600083015261101081610f10565b9050919050565b600060208201905061102c6000830184610f50565b92915050565b600081519050919050565b600082825260208201905092915050565b600061105982611116565b915061106483611116565b9250827fffffffffffffffffffffffffffffffffffffffffffffffffffffffffffffffff0382111561109957611098611197565b5b828201905092915050565b60006110af82611116565b91506110ba83611116565b9250828210156110cd576110cc611197565b5b828203905092915050565b60006110e3826110f6565b9050919050565b60008115159050919050565b600073ffffffffffffffffffffffffffffffffffffffff82169050919050565b6000819050919050565b600061112b82611116565b9050919050565b60005b83811015611150578082015181840152602081019050611135565b8381111561115f576000848401525b50505050565b6000600282049050600182168061117d57607f821691505b60208210811415611191576111906111c6565b5b50919050565b7f4e487b7100000000000000000000000000000000000000000000000000000000600052601160045260246000fd5b7f4e487b7100000000000000000000000000000000000000000000000000000000600052602260045260246000fd5b6000601f19601f8301169050919050565b61120f816110d8565b811461121a57600080fd5b50565b61122681611116565b811461123157600080fd5b5056fea2646970667358221220b4a52cf9463ce41e6176fe03a97897c524a99a944a9123e8eaf7571f71361bb964736f6c63430008000033",
  "immutableReferences": {},
  "source": "// SPDX-License-Identifier: MIT\n\npragma solidity ^0.8.0;\n\ncontract SampleToken {\n    string public name = \"Sample Token\";\n    string public symbol = \"TOK\";\n\n    uint256 private _totalSupply;\n    uint256 private _totalSales;\n\n    address owner;\n    address sampleTokenSaleAddress;\n\n    event Transfer(address indexed _from, address indexed _to, uint256 _value);\n\n    event Approval(\n        address indexed _owner,\n        address indexed _spender,\n        uint256 _value\n    );\n\n    mapping(address => uint256) private _balances;\n    mapping(address => mapping(address => uint256)) private _allowance;\n\n    modifier hasEnoughMoney(address _from, uint256 _value) {\n        require(_balances[_from] >= _value, \"Not enough money 1\");\n        _;\n    }\n\n    modifier isOwner() {\n        require(msg.sender == owner, \"Not owner 1\");\n        _;\n    }\n\n    constructor(uint256 _initialSupply) {\n        _balances[msg.sender] = _initialSupply;\n        _totalSupply = _initialSupply;\n        _totalSales = 0;\n        owner = msg.sender;\n        sampleTokenSaleAddress = msg.sender;\n\n        emit Transfer(address(0), msg.sender, _totalSupply);\n    }\n\n    function balanceOf(address _owner) public view returns (uint256) {\n        return _balances[_owner];\n    }\n\n    function totalSupply() public view returns (uint256) {\n        return _totalSupply;\n    }\n\n    function transfer(address _to, uint256 _value)\n        public\n        hasEnoughMoney(msg.sender, _value)\n        returns (bool success)\n    {\n        _balances[msg.sender] -= _value;\n        _balances[_to] += _value;\n\n        mint(_value);\n        emit Transfer(msg.sender, _to, _value);\n\n        return true;\n    }\n\n    function approve(address _spender, uint256 _value)\n        public\n        hasEnoughMoney(msg.sender, _value)\n        returns (bool success)\n    {\n        _allowance[msg.sender][_spender] = _value;\n\n        emit Approval(msg.sender, _spender, _value);\n        return true;\n    }\n\n    function allowance(address _owner, address _spender)\n        public\n        view\n        returns (uint256)\n    {\n        return _allowance[_owner][_spender];\n    }\n\n    function transferFrom(\n        address _from,\n        address _to,\n        uint256 _value\n    ) public hasEnoughMoney(_from, _value) returns (bool success) {\n        require(_value <= _allowance[_from][msg.sender], \"Not enough approved 1\");\n\n        _balances[_from] -= _value;\n        _balances[_to] += _value;\n        _allowance[_from][msg.sender] -= _value;\n\n        emit Transfer(_from, _to, _value);\n        return true;\n    }\n\n    function setTokenSaleAddress(address _tokenSaleAddress) external isOwner {\n        sampleTokenSaleAddress = _tokenSaleAddress;\n    }\n\n    function mint(uint256 _value) private {\n        _totalSales += _value;\n\n        while (_totalSales > 10000) {\n            _totalSales -= 10000;\n            _totalSupply += 1;\n            _balances[owner] += 1;\n            _allowance[owner][sampleTokenSaleAddress] += 1;\n\n            emit Transfer(address(0), owner, 1);\n        }\n    }\n}\n",
  "sourcePath": "/home/sergiu/Downloads/homework2/contracts/SampleToken.sol",
  "compiler": {
    "name": "solc",
    "version": "0.8.0+commit.c7dfd78e.Emscripten.clang"
  },
  "schemaVersion": "3.4.11",
  "updatedAt": "2023-01-03T00:59:51.126Z",
  "networkType": "ethereum",
  "devdoc": {
    "kind": "dev",
    "methods": {},
    "version": 1
  },
  "userdoc": {
    "kind": "user",
    "methods": {},
    "version": 1
  }
}